:020000040800F2
:10000000005000204D0400089D0400089D040008D5
:100010009D0400089D0400089D04000800000000E5
:100020000000000000000000000000009D04000827
:100030009D040008000000009D0400089D040008C5
:100040009D0400089D0400089D0400089D0400080C
:100050009D0400089D0400089D0400089D040008FC
:100060009D0400089D0400089D0400089D040008EC
:100070009D0400089D0400089D0400089D040008DC
:100080009D0400089D0400089D0400089D040008CC
:100090009D0400089D0400089D0400089D040008BC
:1000A0009D0400089D0400089D0400089D040008AC
:1000B0009D0400089D0400089D0400089D0400089C
:1000C0009D0400089D0400089D0400089D0400088C
:1000D0009D0400089D0400089D0400089D0400087C
:1000E0009D0400089D040008000000009D04000815
:1000F0009D0400089D0400089D0400089D0400085C
:100100009D0400089D0400089D0400089D0400084B
:100110009D0400089D0400089D0400089D0400083B
:100120009D0400089D0400089D0400089D0400082B
:100130000348044B834202D0034B03B11847704776
:10014000300400203004002000000000054806496B
:100150000B1AD90F01EBA301491002D0034B03B1D5
:1001600018477047300400203004002000000000D1
:1001700010B5064C237843B9FFF7DAFF044B13B1EF
:100180000448AFF300800123237010BD3004002029
:1001900000000000B404000808B5044B1BB104497A
:1001A0000448AFF30080BDE80840CFE7000000003E
:1001B00034040020B404000849B91C4B984217D0FD
:1001C0001B4B984220D01B4B984217D070470129F7
:1001D000FCD1164B98421DD0154B984220D0154BA0
:1001E0009842F3D1144A936923F010039361EDE729
:1001F000114A936943F00403936170470E4A93696F
:1002000043F01003936170470B4A936943F008036E
:1002100093617047084A936923F004039361704720
:10022000054A936923F00803936170470008014071
:10023000000C014000100140001002402DE9F04187
:100240000A680D797AB3002301240F2603E00133F5
:1002500032FA03F127D004FA03F101EA020C9143C8
:10026000F5D1ACF108014FEA8C0E8900BCF1070F03
:1002700006FA0EF706FA01F805FA0EFE15D801681F
:1002800021EA0701016001684EEA01010160082DC1
:10029000DDD1016904FA0CFC4CEA01010133016172
:1002A00032FA03F1D7D1BDE8F081476827EA0807A1
:1002B0004760476805FA01F139434160E7E700BF4D
:1002C0000023036043608360C36003614361836113
:1002D000704700BF8268012303FA01F1114214BF85
:1002E00018460020704700BF012A036906D010316C
:1002F000012202FA01F11943016170478A401A4351
:1003000002617047C268012303FA01F15140C160E4
:10031000704700BF002301461A46184600F03AB85D
:1003200038B5084B084D5B1B9C1007D0043B1D449F
:10033000013C55F804399847002CF9D1BDE8384004
:1003400000F0BEB8DC040008D804000870B50D4EFB
:100350000D4D761BB61006D0002455F8043B013431
:100360009847A642F9D1094E094D761B00F0A2F834
:10037000B61006D0002455F8043B01349847A64235
:10038000F9D170BDD0040008D0040008D8040008DA
:10039000D004000870B4184C2568D5F848411CB347
:1003A00065681F2D25DC38B9AB1C0135656044F844
:1003B0002310002070BC704704EB850C0228CCF899
:1003C0008820D4F888614FF0010202FA05F246EA6B
:1003D0000206C4F88861CCF80831E5D1D4F88C3134
:1003E0001343C4F88C31DFE705F5A674C5F848411E
:1003F000D6E74FF0FF30DDE7CC04000800B5124827
:10040000114C85B00021FFF7D7FE022203230E48CE
:10041000009269468DF80430FFF710FF082301228F
:10042000094802920DEB03018DF80C30FFF706FF2F
:10043000204601220221FFF757FF00220221204619
:10044000FFF752FFF4E700BF000801400D48854662
:10045000AFF300800C480D490D4A002302E0D45848
:10046000C4500433C4188C42F9D30A4A0A4C0023FE
:1004700001E013600432A242FBD3FFF767FFFFF7EE
:10048000BDFFFEE7005000200000002030040020E7
:10049000DC040008300400204C040020FEE70000CB
:1004A000024B13B10248FFF735BF70470000000050
:1004B00021030008F8B500BFF8BC08BC9E46704791
:0C04C000F8B500BFF8BC08BC9E467047B1
:0404CC000800002004
:0804D000A104000899010008D5
:0404D80071010008A6
:1004DC00080000200000000000000000F4020020D2
:1004EC005C030020C403002000000000000000009A
:1004FC0000000000000000000000000000000000F0
:10050C0000000000000000000000000000000000DF
:10051C0000000000000000000000000000000000CF
:10052C0000000000000000000000000000000000BF
:10053C0000000000000000000000000000000000AF
:10054C00000000000000000000000000000000009F
:10055C00000000000000000000000000000000008F
:10056C00000000000000000000000000000000007F
:10057C00000000000000000000000000000000006F
:10058C0001000000000000000E33CDAB34126DE60C
:10059C00ECDE05000B000000000000000000000075
:1005AC00000000000000000000000000000000003F
:1005BC00000000000000000000000000000000002F
:1005CC00000000000000000000000000000000001F
:1005DC00000000000000000000000000000000000F
:040000050800044D9E
:00000001FF
