:020000040800F2
:100000000050002061040008B1040008B104000899
:10001000B1040008B1040008B104000800000000A9
:10002000000000000000000000000000B104000813
:10003000B104000800000000B1040008B104000889
:10004000B1040008B1040008B1040008B1040008BC
:10005000B1040008B1040008B1040008B1040008AC
:10006000B1040008B1040008B1040008B10400089C
:10007000B1040008B1040008B1040008B10400088C
:10008000B1040008B1040008B1040008B10400087C
:10009000B1040008B1040008B1040008B10400086C
:1000A000B1040008B1040008B1040008B10400085C
:1000B000B1040008B1040008B1040008B10400084C
:1000C000B1040008B1040008B1040008B10400083C
:1000D000B1040008B1040008B1040008B10400082C
:1000E000B1040008B104000800000000B1040008D9
:1000F000B1040008B1040008B1040008B10400080C
:10010000B1040008B1040008B1040008B1040008FB
:10011000B1040008B1040008B1040008B1040008EB
:10012000B1040008B1040008B1040008B1040008DB
:100130000348044B834202D0034B03B11847704776
:10014000300400203004002000000000054806496B
:100150000B1AD90F01EBA301491002D0034B03B1D5
:1001600018477047300400203004002000000000D1
:1001700010B5064C237843B9FFF7DAFF044B13B1EF
:100180000448AFF300800123237010BD3004002029
:1001900000000000C804000808B5044B1BB1044966
:1001A0000448AFF30080BDE80840CFE7000000003E
:1001B00034040020C804000830B52E4B44689C422B
:1001C00008D003F580639C4204D003F580639C4211
:1001D00000D0FEE7036893F804E0BEF10B0F04D9EA
:1001E000AEF10D02022A00D9FEE71A680F2A28D8BC
:1001F000204B9C4232D0204B9C4223D01F4B9C4230
:1002000032D0EAB16FF01F0100234FF0010C05E07E
:10021000013332FA03F001F1040111D00CFA03F0BA
:100220009043F5D19800072B0EFA00F010D82568FE
:1002300001332843206032FA03F001F10401EDD1CB
:1002400030BDFEE70E498B6943F008038B61D8E7A8
:1002500060680EFA01F528436060D9E708498B69A8
:1002600043F004038B61CCE705498B6943F010032D
:100270008B61C6E700080140000C014000100140FE
:1002800000100240124A4368934217D002F5806280
:10029000934204D002F58062934209D0FEE70D4AF2
:1002A000936923F008039361002303604360704760
:1002B000084A936923F010039361F5E7054A9369AF
:1002C00023F004039361002303604360704700BF81
:1002D00000080140001002400F2905D843689868C3
:1002E000003818BF01207047FEE700BF0F2908D86B
:1002F000012A426813690CBF0B4343EA01431361AF
:100300007047FEE751B14268D368181E18BF01203C
:1003100021EA030343EA004313617047FEE700BF8D
:100320000B490C4B8A6942F004028A61D3F8002819
:1003300022F0F002C3F80028D3F8002842F030027F
:10034000C3F80028D3F80028C3F80028704700BF7E
:100350000010024000000140002301461A461846E2
:1003600000F03AB838B5084B084D5B1B9C1007D01D
:10037000043B1D44013C55F804399847002CF9D141
:10038000BDE8384000F0A6B8F0040008EC0400080E
:1003900070B50D4E0D4D761BB61006D0002455F8E5
:1003A000043B01349847A642F9D1094E094D761B0A
:1003B00000F08AF8B61006D0002455F8043B01344A
:1003C0009847A642F9D170BDE4040008E40400088F
:1003D000EC040008E404000870B4184C2568D5F853
:1003E00048411CB365681F2D25DC38B9AB1C0135AD
:1003F000656044F82310002070BC704704EB850C46
:100400000228CCF88820D4F888614FF0010202FA63
:1004100005F246EA0206C4F88861CCF80831E5D155
:10042000D4F88C311343C4F88C31DFE705F5A6749A
:10043000C5F84841D6E74FF0FF30DDE7E00400089B
:1004400008B5FFF76DFF054B0222C3F810284FF4E3
:100450000031C3F81028C3F81018FAE70000014073
:100460000D488546AFF300800C480D490D4A002326
:1004700002E0D458C4500433C4188C42F9D30A4A59
:100480000A4C002301E013600432A242FBD3FFF7C1
:100490007FFFFFF7D5FFFEE700500020000000209F
:1004A00030040020F0040008300400204C04002038
:1004B000FEE70000024B13B10248FFF74DBF704743
:1004C0000000000065030008F8B500BFF8BC08BCD8
:1004D0009E467047F8B500BFF8BC08BC9E46704702
:0404E00008000020F0
:0804E400B504000899010008AD
:0404EC007101000892
:1004F000080000200000000000000000F4020020BE
:100500005C030020C4030020000000000000000085
:1005100000000000000000000000000000000000DB
:1005200000000000000000000000000000000000CB
:1005300000000000000000000000000000000000BB
:1005400000000000000000000000000000000000AB
:10055000000000000000000000000000000000009B
:10056000000000000000000000000000000000008B
:10057000000000000000000000000000000000007B
:10058000000000000000000000000000000000006B
:10059000000000000000000000000000000000005B
:1005A00001000000000000000E33CDAB34126DE6F8
:1005B000ECDE05000B000000000000000000000061
:1005C000000000000000000000000000000000002B
:1005D000000000000000000000000000000000001B
:1005E000000000000000000000000000000000000B
:1005F00000000000000000000000000000000000FB
:04000005080004618A
:00000001FF
