:020000040800F2
:10000000005000202D0400087D0400087D04000835
:100010007D0400087D0400087D0400080000000045
:100020000000000000000000000000007D04000847
:100030007D040008000000007D0400087D04000825
:100040007D0400087D0400087D0400087D0400088C
:100050007D0400087D0400087D0400087D0400087C
:100060007D0400087D0400087D0400087D0400086C
:100070007D0400087D0400087D0400087D0400085C
:100080007D0400087D0400087D0400087D0400084C
:100090007D0400087D0400087D0400087D0400083C
:1000A0007D0400087D0400087D0400087D0400082C
:1000B0007D0400087D0400087D0400087D0400081C
:1000C0007D0400087D0400087D0400087D0400080C
:1000D0007D0400087D0400087D0400087D040008FC
:1000E0007D0400087D040008000000007D04000875
:1000F0007D0400087D0400087D0400087D040008DC
:100100007D0400087D0400087D0400087D040008CB
:100110007D0400087D0400087D0400087D040008BB
:100120007D0400087D0400087D0400087D040008AB
:100130000348044B834202D0034B03B11847704776
:10014000300400203004002000000000054806496B
:100150000B1AD90F01EBA301491002D0034B03B1D5
:1001600018477047300400203004002000000000D1
:1001700010B5064C237843B9FFF7DAFF044B13B1EF
:100180000448AFF300800123237010BD3004002029
:10019000000000009404000808B5044B1BB104499A
:1001A0000448AFF30080BDE80840CFE7000000003E
:1001B0003404002094040008294B98422DE9F041B2
:1001C00041D0284B98422ED0274B984241D00C6802
:1001D0000E7934B300234FF0010E0F2503E00133F5
:1001E00034FA03F21DD00EFA03F232EA0401F6D11A
:1001F000A2F108014FEA820C8900072A05FA0CF8DF
:1002000005FA01F706FA0CFC13D8026822EA080284
:100210000260026801334CEA0202026034FA03F21F
:10022000E1D1BDE8F081114A936943F0080393617D
:10023000CDE7426822EA07024260426806FA01F10D
:1002400011434160CBE7094A936943F0040393618A
:10025000BDE7064A936943F010039361B7E700BF17
:1002600000080140000C0140001001400010024055
:10027000114B984214D0114B98420BD0104B98421E
:1002800014D00023036043608360C3600361436153
:10029000836170470B4A936923F008039361F0E789
:1002A000084A936923F004039361EAE7054A9369D6
:1002B00023F010039361E4E700080140000C0140C3
:1002C00000100140001002408068003818BF012073
:1002D000704700BF012A036906D01031012202FADB
:1002E00001F11943016170478A401A430261704766
:1002F00029B1C268012303FA01F15140C16070477E
:10030000002301461A46184600F03AB838B5084BA3
:10031000084D5B1B9C1007D0043B1D44013C55F865
:1003200004399847002CF9D1BDE8384000F0B8B83E
:10033000BC040008B804000870B50D4E0D4D761BC6
:10034000B61006D0002455F8043B01349847A64265
:10035000F9D1094E094D761B00F09CF8B61006D075
:10036000002455F8043B01349847A642F9D170BDEA
:10037000B0040008B0040008B8040008B004000885
:1003800070B4184C2568D5F848411CB365681F2D1A
:1003900025DC38B9AB1C0135656044F8231000201A
:1003A00070BC704704EB850C0228CCF88820D4F888
:1003B00088614FF0010202FA05F246EA0206C4F82B
:1003C0008861CCF80831E5D1D4F88C311343C4F8F6
:1003D0008C31DFE705F5A674C5F84841D6E74FF044
:1003E000FF30DDE7AC04000800B583B003230E48FE
:1003F000009369468DF80430FFF7DEFE01220A48BB
:10040000094C1146FFF766FF20460121FFF770FFF8
:10041000204601220221FFF75DFF00220221204633
:10042000FFF758FFF0E700BF000801400D48854680
:10043000AFF300800C480D490D4A002302E0D45868
:10044000C4500433C4188C42F9D30A4A0A4C00231E
:1004500001E013600432A242FBD3FFF76DFFFFF708
:10046000C3FFFEE700500020000000203004002001
:10047000BC040008300400204C040020FEE700000B
:10048000024B13B10248FFF73BBF7047000000006A
:100490000D030008F8B500BFF8BC08BC9E467047C5
:0C04A000F8B500BFF8BC08BC9E467047D1
:0404AC000800002024
:0804B000810400089901000815
:0404B80071010008C6
:1004BC00080000200000000000000000F4020020F2
:1004CC005C030020C40300200000000000000000BA
:1004DC000000000000000000000000000000000010
:1004EC000000000000000000000000000000000000
:1004FC0000000000000000000000000000000000F0
:10050C0000000000000000000000000000000000DF
:10051C0000000000000000000000000000000000CF
:10052C0000000000000000000000000000000000BF
:10053C0000000000000000000000000000000000AF
:10054C00000000000000000000000000000000009F
:10055C00000000000000000000000000000000008F
:10056C0001000000000000000E33CDAB34126DE62C
:10057C00ECDE05000B000000000000000000000095
:10058C00000000000000000000000000000000005F
:10059C00000000000000000000000000000000004F
:1005AC00000000000000000000000000000000003F
:1005BC00000000000000000000000000000000002F
:040000050800042DBE
:00000001FF
