:020000040800F2
:1000000000500020F10200084103000841030008ED
:1000100041030008410300084103000800000000FC
:100020000000000000000000000000004103000884
:1000300041030008000000004103000841030008DC
:100040004103000841030008410300084103000880
:100050004103000841030008410300084103000870
:100060004103000841030008410300084103000860
:100070004103000841030008410300084103000850
:100080004103000841030008410300084103000840
:100090004103000841030008410300084103000830
:1000A0004103000841030008410300084103000820
:1000B0004103000841030008410300084103000810
:1000C0004103000841030008410300084103000800
:1000D00041030008410300084103000841030008F0
:1000E000410300084103000800000000410300082C
:1000F00041030008410300084103000841030008D0
:1001000041030008410300084103000841030008BF
:1001100041030008410300084103000841030008AF
:10012000410300084103000841030008410300089F
:100130000348044B834202D0034B03B11847704776
:10014000300400203004002000000000054806496B
:100150000B1AD90F01EBA301491002D0034B03B1D5
:1001600018477047300400203004002000000000D1
:1001700010B5064C237843B9FFF7DAFF044B13B1EF
:100180000448AFF300800123237010BD3004002029
:10019000000000005803000808B5044B1BB10449D7
:1001A0000448AFF30080BDE80840CFE7000000003E
:1001B00034040020580300080B490C4B8A6942F0B4
:1001C00004028A61D3F8002822F0F002C3F8002864
:1001D000D3F8002842F03002C3F80028D3F80028F2
:1001E000C3F80028704700BF001002400000014023
:1001F000704700BF002301461A46184600F03AB87F
:1002000038B5084B084D5B1B9C1007D0043B1D44C0
:10021000013C55F804399847002CF9D1BDE8384025
:1002200000F0A0B8800300087C03000870B50D4EF4
:100230000D4D761BB61006D0002455F8043B013452
:100240009847A642F9D1094E094D761B00F084F873
:10025000B61006D0002455F8043B01349847A64256
:10026000F9D170BD74030008740300087C03000812
:100270007403000870B4184C2568D5F848411CB3C5
:1002800065681F2D25DC38B9AB1C0135656044F865
:100290002310002070BC704704EB850C0228CCF8BA
:1002A0008820D4F888614FF0010202FA05F246EA8C
:1002B0000206C4F88861CCF80831E5D1D4F88C3155
:1002C0001343C4F88C31DFE705F5A674C5F848413F
:1002D000D6E74FF0FF30DDE77003000808B5FFF701
:1002E0006BFF024A0223C2F81038FCE7000001400D
:1002F0000D488546AFF300800C480D490D4A002398
:1003000002E0D458C4500433C4188C42F9D30A4ACA
:100310000A4C002301E013600432A242FBD3FFF732
:1003200085FFFFF7DBFFFEE7005000200000002004
:100330003004002080030008300400204C0400201A
:10034000FEE70000024B13B10248FFF753BF7047AE
:100350000000000001020008F8B500BFF8BC08BCAE
:100360009E467047F8B500BFF8BC08BC9E46704773
:040370000800002061
:0803740045030008990100088F
:04037C007101000803
:10038000080000200000000000000000F40200202F
:100390005C030020C40300200000000000000000F7
:1003A000000000000000000000000000000000004D
:1003B000000000000000000000000000000000003D
:1003C000000000000000000000000000000000002D
:1003D000000000000000000000000000000000001D
:1003E000000000000000000000000000000000000D
:1003F00000000000000000000000000000000000FD
:1004000000000000000000000000000000000000EC
:1004100000000000000000000000000000000000DC
:1004200000000000000000000000000000000000CC
:1004300001000000000000000E33CDAB34126DE669
:10044000ECDE05000B0000000000000000000000D2
:10045000000000000000000000000000000000009C
:10046000000000000000000000000000000000008C
:10047000000000000000000000000000000000007C
:10048000000000000000000000000000000000006C
:04000005080002F1FC
:00000001FF
